:100000000C94B6000C94DE000C94DE000C94DE0020
:100010000C94DE000C94DE000C94DE000C94DE00E8
:100020000C94DE000C94DE000C94DE000C94DE00D8
:100030000C94DE000C94990E0C94DE000C94DE00FF
:100040000C944F0E0C94DE000C941D0E0C94F70DC6
:100050000C94DE000C94DE000C94DE000C94DE00A8
:100060000C94DE000C94DE006382536300010800F0
:100070000604000100000000240027002A00000000
:100080000000250028002B000000000023002600AF
:10009000290004040404040404040202020202020B
:1000A000030303030303010204081020408001023C
:1000B00004081020010204081020000000080002BB
:1000C00001000003040700000000000000004500DC
:1000D00000820000400020485454502F312E302020
:1000E000323030204F4B0D0A436F6E74656E742DA5
:1000F000547970653A206170706C69636174696FDE
:100100006E2F6A736F6E0D0A507261676D613A20CF
:100110006E6F2D63616368650D0A0D0A7B22746939
:10012000746C65223A226D792073656E736F72204C
:10013000757064617465222C2268656172745F72E7
:10014000617465223A24442C2274656D70223A242D
:10015000442C22626D70223A24442C2268756D6909
:1001600064697479223A24447D00C00E11241FBEB4
:10017000CFEFD8E0DEBFCDBF11E0A0E0B1E0EEE50B
:10018000FBE202C005900D92AC3CB107D9F724E028
:10019000ACECB1E001C01D92A03EB207E1F710E067
:1001A000C6EBD0E004C02197FE010E947F15C53B3D
:1001B000D107C9F70E94170F0C94AD150C940000DD
:1001C000CF93DF9320912C042223C1F0FC012081E6
:1001D0002223A1F0CCE2D4E0A8E2B4E09C012C5FA1
:1001E0003F4F899141919D918427892339F4E217EA
:1001F000F307B9F781E0DF91CF91089580E0FBCF5D
:10020000CF93DF93EC01FB018A30910548F06AE05F
:1002100070E00E943E15CB01BF010E940001FC016D
:10022000CE016AE070E00E943E15805D80831182FD
:10023000CF010196DF91CF910895AF92BF92CF92F7
:10024000DF92EF92FF920F931F93CF93DF936C0196
:100250007B018B01040F151FEB015E01AE18BF0877
:10026000C017D10759F06991D601ED91FC91019029
:10027000F081E02DC6010995892B79F7C501DF9141
:10028000CF911F910F91FF90EF90DF90CF90BF9093
:10029000AF900895FC01538D448D252F30E0842FBD
:1002A00090E0821B930B541710F0CF96089501979E
:1002B0000895FC01918D828D981761F0A28DAE0F8B
:1002C000BF2FB11D5D968C91928D9F5F9F73928F12
:1002D00090E008958FEF9FEF0895FC01918D828D3E
:1002E000981731F0828DE80FF11D858D90E008950B
:1002F0008FEF9FEF0895FC01918D228D892F90E063
:10030000805C9F4F821B91098F739927089580E32A
:1003100094E00E947B0121E0892B09F420E0822FE8
:10032000089580E090E0892B29F00E9487018111D7
:100330000C9400000895FC01A48DA80FB92FB11DE5
:10034000A35ABF4F2C91848D90E001968F7399270B
:10035000848FA689B7892C93A089B1898C918370E9
:1003600080648C93938D848D981306C00288F389E2
:10037000E02D80818F7D80830895EF92FF920F930F
:100380001F93CF93DF93EC0181E0888F9B8D8C8D41
:1003900098131AC0E889F989808185FF15C09FB735
:1003A000F894EE89FF896083E889F98980818370F8
:1003B000806480839FBF81E090E0DF91CF911F91A7
:1003C0000F91FF90EF900895F62E0B8D10E00F5FC8
:1003D0001F4F0F731127E02E8C8D8E110CC00FB69E
:1003E00007FCFACFE889F989808185FFF5CFCE0136
:1003F0000E949B01F1CFEB8DEC0FFD2FF11DE35A15
:10040000FF4FF0829FB7F8940B8FEA89FB898081B8
:100410008062CFCFCF93DF93EC01888D8823B9F032
:10042000AA89BB89E889F9898C9185FD03C08081FF
:1004300086FD0DC00FB607FCF7CF8C9185FFF2CF7C
:10044000808185FFEDCFCE010E949B01E9CFDF9136
:10045000CF910895833081F028F4813099F0823073
:10046000A9F008958730A9F08830C9F08430B1F43C
:10047000809180008F7D03C0809180008F77809372
:100480008000089584B58F7784BD089584B58F7DED
:10049000FBCF8091B0008F778093B000089580915A
:1004A000B0008F7DF9CFCF93DF93282F30E0F90193
:1004B000E654FF4F8491F901EA55FF4FD491F901B9
:1004C000EE56FF4FC491CC23A1F081110E942A0265
:1004D000EC2FF0E0EE0FFF1FE857FF4FA591B4910E
:1004E000EC91ED2381E090E009F480E0DF91CF9181
:1004F000089580E090E0FACF1F93CF93DF93282FE9
:1005000030E0F901E654FF4F8491F901EA55FF4FBD
:10051000D491F901EE56FF4FC491CC23A9F0162FC8
:1005200081110E942A02EC2FF0E0EE0FFF1FE2582B
:10053000FF4FA591B4918FB7F894EC91111108C0B9
:10054000D095DE23DC938FBFDF91CF911F9108956B
:10055000DE2BF8CFCF93DF9390E0FC01EA55FF4FFD
:1005600024918E569F4FFC0184918823C9F090E01E
:10057000880F991FFC01EC58FF4FA591B491FC0125
:10058000E258FF4FC591D49161110DC09FB7F89407
:100590008C91209582238C938881282328839FBF68
:1005A000DF91CF910895623051F49FB7F8943C9158
:1005B000822F809583238C93E8812E2BEFCF8FB7EA
:1005C000F894EC912E2B2C938FBFEACF3FB7F89481
:1005D0008091EC019091ED01A091EE01B091EF01BD
:1005E00026B5A89B05C02F3F19F00196A11DB11D8E
:1005F0003FBFBA2FA92F982F8827BC01CD01620FCA
:10060000711D811D911D42E0660F771F881F991F84
:100610004A95D1F708958F929F92AF92BF92CF9251
:10062000DF92EF92FF924B015C010E94E6026B01A8
:100630007C010E94E6026C197D098E099F09683EC3
:10064000734081059105A8F321E0821A9108A10861
:10065000B10888EEC80E83E0D81EE11CF11C81149D
:100660009104A104B10429F7FF90EF90DF90CF909F
:10067000BF90AF909F908F9008952FB7F89460919E
:10068000E8017091E9018091EA019091EB012FBF9F
:100690000895CF92DF92EF92FF920F931F93CF9323
:1006A000DF93EC017A016901E881F9810190F08121
:1006B000E02D0995E881F9810084F185E02D98010C
:1006C000A601B701CE01DF91CF911F910F91FF904D
:1006D000EF90DF90CF9009946F927F928F929F92CC
:1006E000AF92BF92CF92DF92EF92FF920F931F9340
:1006F000CF93DF93CDB7DEB729970FB6F894DEBF5F
:100700000FBECDBFDC011696ED91FC91319609F438
:1007100080C059013A016B018C01FE0131964F01F5
:1007200085E0DF011D928A95E9F7D801ED91FC91F2
:100730000488F589E02DB401C80109957C01892B55
:1007400009F051C01F821E8219861886D801ED91CA
:10075000FC910688F789E02D9E01285F3F4FAE018E
:100760004A5F5F4FB401C80109957C01892BD9F517
:10077000A114B10439F085E0F401D50101900D9286
:100780008A95E1F70E811F81C114D10479F0612FA0
:10079000772767FD7A95072E000C880B990B0E942E
:1007A000DA14F60160837183828393836114710488
:1007B00089F08985682F782F770F770B072E000C2B
:1007C000880B990B0E94DA14D3016D937D938D935E
:1007D0009C931397012B39F488859985892B19F4FB
:1007E00096E1E92EF12CC70129960FB6F894DEBFE9
:1007F0000FBECDBFDF91CF911F910F91FF90EF9072
:10080000DF90CF90BF90AF909F908F907F906F9030
:10081000089587E1E82EF12CE6CF8F929F92AF9258
:10082000BF92CF92DF92EF92FF920F931F93CF93DD
:10083000DF93EC018B016A017901E881F98102887B
:10084000F389E02DDB016C910995B82EE881F981DF
:100850000288F389E02DD80111966C91CE0109959B
:10086000982EE881F9810288F389E02DD80112964B
:100870006C91CE010995A82EE881F9810288F3894F
:10088000E02DD80113966C91CE010995882EE88150
:10089000F9810288F389E02DD80114966C91CE017C
:1008A00009959B2D990D9A0D980D891319C09A2DB4
:1008B000882DF601918380839B2D892DD7018D93FF
:1008C0009C9390E080E0DF91CF911F910F91FF907A
:1008D000EF90DF90CF90BF90AF909F908F90089552
:1008E00085E190E0F0CF629570E09B01359527950A
:1008F000359527952373660F771F660F771F6C7CDE
:10090000262B30E0C901959587958575220F331FF9
:100910002A7A822B08953F924F925F926F927F9234
:100920008F929F92AF92BF92CF92DF92EF92FF92FF
:100930000F931F93CF93DF93EC01162F7A01690178
:100940000E94E6024B015C01312C11113984360101
:10095000660C771C660C771C85E0681A7108270105
:10096000440C551C440C551C85E0481A510810E0F5
:1009700000E060E070E0CB012A813B814C815D8129
:1009800026173707480759070CF10115110599F586
:1009900082E0E816F1041CF0C2010197F1F70E9411
:1009A000E602681979098A099B09EA85F0E0EE0FE9
:1009B000FF1FE857FF4FA591B4912C910F5F1F4F78
:1009C00039852323231105C097FFD6CF6FEF7FEF23
:1009D000CB01DF91CF911F910F91FF90EF90DF90AE
:1009E000CF90BF90AF909F908F907F906F905F90CF
:1009F0004F903F90089582E0C816D10484F2C3015D
:100A0000CCCFFC01828590E00895FC01818590E0C7
:100A10000895CF92DF92EF92FF920F931F93CF939F
:100A2000DF93EC017A016901E881F9810190F0819D
:100A3000E02D0995E881F9810480F581E02D980188
:100A4000A601B701CE01DF91CF911F910F91FF90C9
:100A5000EF90DF90CF900994CF92DF92EF92FF92C8
:100A60000F931F93CF93DF93CDB7DEB728970FB6C1
:100A7000F894DEBF0FBECDBFDC011696ED91FC9160
:100A8000319609F440C08A017B0119821A821B82C7
:100A90001C821D821E821F821886DC01ED91FC9152
:100AA0000084F185E02DAE014B5F5F4FBE016F5FAB
:100AB0007F4F09956C01892BB1F4E114F10441F0E9
:100AC00069817A818B819C810E94A214F7016083E5
:100AD0000115110541F06D817E818F8198850E94FD
:100AE000A214D8016C93C60128960FB6F894DEBF05
:100AF0000FBECDBFDF91CF911F910F91FF90EF906F
:100B0000DF90CF90089587E1C82ED12CECCF262F0F
:100B10002D7F29F4FC01608790E080E0089588E152
:100B200090E00895DC0117967C936E931697FB0175
:100B3000EA55FF4FE4911996EC9319976E567F4F43
:100B4000FB0164911A966C930895809144029091F0
:100B5000450298278927982744972091620230E020
:100B600044E0359527954A95E1F7220F331F220F70
:100B7000331F821B930B97FF02C090E080E0089523
:100B80002091580230915602309358022093560219
:100B90002091590230915702309359022093570205
:100BA000E4E3F2E021A5820F911D25A585A7662328
:100BB00081F021A7892F9927319722E0E033F207AE
:100BC00089F7109266021092670280E580936202B4
:100BD000089511A6EFCF0F931F93CF93DF9370E08B
:100BE0006C5C7D4F8A01075F1F4F213029F0223056
:100BF00031F48A010250110930E020E003C000E026
:100C000010E09801EB01FA01E230F10558F0A991EA
:100C1000B991BA27AB27BA270A0F1B1F211D311D17
:100C20003297F2CFFA01EE7F6E0F7F1F4E175F07EC
:100C300069F0FB01408150E070E060E0762F652FA5
:100C4000542F4427040F151F261F371FA90166279D
:100C50007727411551056105710519F022273327C2
:100C6000F1CF00951095E82FF0E0EC5CFD4F10837C
:100C70000183DF91CF911F910F910895E4E3F2E09A
:100C8000108E118E80E4848B158A868B20E044E1DF
:100C900050E06EE088E10C94EB058EBD0DB407FECC
:100CA000FDCF089561E08091F0010E947C0278946C
:100CB0000895F89460E08091F0010C947C020F9309
:100CC0001F93CF93DF93EC018B010E94590620976D
:100CD000B9F08AE30E944D061EBCF801CE010197CF
:100CE00039F00DB407FEFDCF2EB51EBC2193F7CF12
:100CF0002197C00FD11F0DB407FEFDCF8EB588839D
:100D0000DF91CF911F910F910C9452061F93CF93B7
:100D1000DF93182FC62FD42F0E9459068C2F8F7166
:100D2000812B0E944D068D2F0E944D06DF91CF91A1
:100D30001F910C945206CF93C82FC0768091E30187
:100D40008C1799F043E06FE180EA0E948606C09319
:100D5000E3014C2F50E085E0559547958A95E1F7E2
:100D60006FE180E8CF910C948606CF910895CF93E0
:100D7000DF93C82FD62F0E949B064D2F6C2F80E447
:100D8000DF91CF910C948606CF93DF93C82FD72F96
:100D90000E94B7066D2F81E08C0FDF91CF910C94EC
:100DA000B706CF93C82F0E949B060E9459068C2F2E
:100DB0008F710E944D0680E00E944D06C7FF03C060
:100DC00080E00E944D06CEB50E9452068C2FCF9136
:100DD000089561E184ED0E94B70661E082ED0E9412
:100DE000B7068AEE0E94D10680FDFBCF60E082ED5F
:100DF0000E94B70689ED0E94D10690E008950F93F6
:100E00001F93CF93DF9300D000D000D0CDB7DEB7D3
:100E10008091E601882379F06091E4017091E50109
:100E20006115710509F053C06FEF7BE08CE00E9403
:100E3000C4061092E60189E30E94D10610E000E0AA
:100E40008823C9F16091E4017091E50180E00E947E
:100E5000C406BE016F5F7F4F86E090E00E945F0690
:100E600089819A819093E5018093E4018D819E812F
:100E70008C010078112787FF12C08B819C81049719
:100E80000091F1011091F2010150110980179107B1
:100E900008F48C0164E372E0C8010E945F06F80167
:100EA000EC5CFD4F108281E08093E60140E46EE14E
:100EB00080E80E948606C80126960FB6F894DEBF29
:100EC0000FBECDBFDF91CF911F910F91089561505B
:100ED0007109ACCFCF93DF93EC0140E86FE180E87C
:100EE0000E94860640E86FE180EA0E9486064AE09A
:100EF0006CE180EA0E94860660E07CE082E00E946D
:100F0000C406BE01745F86E00E94C40640E060E053
:100F10008AE70E9486060E9459062097B1F08AE768
:100F20000E944D06809134028EBDE5E3F2E0CC5C78
:100F3000DD4FEC17FD0731F081910DB407FEFDCFB9
:100F40008EBDF7CF0DB407FEFDCF0E94520648E0DC
:100F50006FE180E80E948606D0E0C0E08CE10E944C
:100F6000D1068A7029F42196C83E83E0D807B1F7EC
:100F70008CE10E94D10681FD03C0C83ED34039F404
:100F800048E06FE180EADF91CF910C948606DF9113
:100F9000CF9108950F931F93CF93DF938C01889681
:100FA000C4E3D2E0988B898B0E943E061AAA1BAA42
:100FB000A801445E5F4F22E06AE182E30E94EB05F4
:100FC000C801C696DF91CF911F910F910C946A07CB
:100FD000CF93DF93EB01682F84ED0E94B706BE012B
:100FE00086ED0E94C4068AEE0E94D10680FDFBCFEA
:100FF000DF91CF910895CF92DF92EF92FF920F93FE
:101000001F938634910568F120915702233449F5E6
:10101000C0906202D0906302E0906402F09065029A
:101020000091D3011091D4012091D5013091D601C6
:10103000C016D106E206F306A1F4EEE4F3E08C5C00
:101040009D4F9F012E5F3F4F41815081553319F4D1
:101050005281651771F0F901E40FF11DE817F907E6
:1010600080F380E01F910F91FF90EF90DF90CF9081
:10107000089581E0F7CFE091CC01F091CD019F017F
:101080002F5F3F4F3093CD012093CC018083089593
:10109000FF920F931F93CF93DF93162FF42E052FFC
:1010A0000E943B08812F0E943B08CF2DD02F11506A
:1010B00020F089910E943B08FACFDF91CF911F91D8
:1010C0000F91FF9008958091320290913302019721
:1010D00049F480912C0290912D02019690932D025B
:1010E00080932C020895DC011696ED91FC911797E0
:1010F0009F012F5F3F4F17963C932E931697608367
:1011000081E090E00895089590E080E00895FB016B
:1011100001900020E9F73197AF01461B570B0C9463
:101120001D01CF92DF92EF92FF920F931F93CF9307
:10113000DF93CDB7DEB78E01015F1F4F97EDE92E2C
:1011400090E0F92EC7010196F7012491222309F4BA
:10115000CFC0243271F0E091D304F091D404AF01F8
:101160004F5F5F4F5093D4044093D30420837C019E
:10117000E9CFF2E0EF0EF11CFC018491863409F412
:1011800083C098F4843409F44AC0853409F494C0C7
:10119000E091D304F091D4049F012F5F3F4F30932F
:1011A000D4042093D3048083CDCF4091D3045091B5
:1011B000D4048C3409F450C0833509F45AC08834FF
:1011C00039F7B8016E5F7F4FF8019081292F092E02
:1011D000000C330B84E0359527958A95E1F72F7045
:1011E0009F709A300CF0995F905D2A300CF0295F67
:1011F000FA013196F093D404E093D304205DFA0110
:101200002083E091D304F091D4049F012F5F3F4FDE
:101210003093D4042093D30490838B0193CF68013F
:10122000F2E0CF0ED11C6091D3047091D404F80188
:10123000808191810E9400018091D3049091D40417
:10124000FC0101900020E9F7CF0101979093D404AD
:101250008093D304860176CF6801F4E0CF0ED11CD1
:10126000F80160817181828193812AE00E94591482
:10127000E3CF6801F2E0CF0ED11CF80160817181EB
:10128000CA010E94A615D8CFF8010190F081E02D87
:101290000E5F1F4F84913196882309F453CFA0919C
:1012A000D304B091D4049D012F5F3F4F3093D404F9
:1012B0002093D3048C93EECFF801808191810E5F4F
:1012C0001F4F6C01FFEFCF1ADF0A0E949A14882388
:1012D00009F438CFE091D304F091D4049F012F5F3B
:1012E0003F4F3093D4042093D3048083C601E9CFC9
:1012F000DF91CF911F910F91FF90EF90DF90CF90F2
:1013000008954F925F926F927F928F929F92AF92C9
:10131000BF92EF92FF920F931F93CF93DF93EC0155
:101320007B0185E0FB0111928A95E9F761E08E81EE
:101330000E94AA0260E08E810E947C0264E170E05B
:1013400080E090E00E940B0361E08E810E947C02AD
:1013500068858E810E94AA028FE590E00197F1F7DF
:10136000E881F9810088F189E02D26E030E04AE04B
:1013700050E060E0CE0109956E317105810591055F
:10138000ACF4982F872F762F66276061CB01DF9111
:10139000CF911F910F91FF90EF90BF90AF909F90D2
:1013A0008F907F906F905F904F900895E881F981C2
:1013B0000088F189E02D26E030E04AE050E061E06D
:1013C000CE010995623371058105910534F4982F9A
:1013D000872F762F66276161D9CF10E000E0812C3E
:1013E000912C54018394E881F9810088F189E02DE2
:1013F00026E030E04AE050E060E0CE010995683137
:1014000071058105910534F4982F872F762F662773
:101410006261BCCFE881F9810088F189E02D26E086
:1014200030E04AE050E061E0CE0109956B30710593
:101430008105910534F4982F872F762F66276361F5
:10144000A5CFF80133E0F595E7953A95E1F7EE0D74
:10145000FF1D9801277033272401350104C0440C77
:10146000551C661C771C2A95D2F7208169327105BC
:1014700081059105FCF0422A40820F5F1F4F083220
:10148000110509F0B0CFE881F9810088F189E02DDC
:1014900026E030E04AE050E060E0CE010995683196
:1014A0007105810591054CF4982F872F762F6627BB
:1014B00064616CCF40944222DFCF70E060E066CF81
:1014C0008F929F92AF92BF92CF92DF92EF92FF9254
:1014D0001F93CF93DF93CDB7DEB7A1970FB6F894E4
:1014E000DEBF0FBECDBFD62E172FBC0180E394E028
:1014F0000E948708ED2CF12E10E08AE0882E912CB6
:10150000A12CB12CF70121917F0130E050E040E0A7
:1015100019A26E01F1E2CF0ED11CCA01B901A501D9
:1015200094010E945215605DF60162936F012115CE
:1015300031054105510589F7309729F0BF0180E356
:1015400094E00E948708133029F06EE280E394E073
:101550000E94BD011F5F1430A9F664E871E080E3CA
:1015600094E00E948708A1960FB6F894DEBF0FBEE4
:10157000CDBFDF91CF911F91FF90EF90DF90CF9083
:10158000BF90AF909F908F9008950E949415DC01BA
:1015900096E0FB0101900D929A95E1F70895CF93A3
:1015A000DF93EB0144E050E0BC0180E592E00E9453
:1015B0009915892B49F46AE472E0CE010E94C70AAA
:1015C00081E0DF91CF91089580E0FBCFBC0184E3FF
:1015D00092E00E94C70A6DEF71E08AE392E00C94FA
:1015E000C70ADC0194E0FB0101900D929A95E1F7A6
:1015F00008950F931F93CF938C0188E291E00E948E
:10160000E60AE4E3F2E088E08487C6E0C58748E0C4
:1016100050E06CE670E082E492E00E945014E4E551
:10162000F2E0DF011D92CA95E9F76DEF71E08AE4FF
:1016300092E00E94C70AB8018AE592E00E94F10A8E
:101640006CE274E080E592E00E94F10A8AE290E0A8
:10165000CF911F910F910C946A078AE392E00E9448
:10166000E60A6EE472E082E592E00E94F10A6CE222
:1016700074E08EE492E00E94F10A0C943E06262F5C
:10168000206120936302643021F0009711F481E01F
:1016900090E061E00E94C0051092440288E28093CD
:1016A00045020E942D0B84E0809364021092650233
:1016B00022E04CE150E06AE182E30E94EB0586E320
:1016C00090E00C946A07CF93DF93EB010E94E60A47
:1016D000BE0182E592E00E94F10A6CE274E08EE4C1
:1016E00092E0DF91CF910C94F10AEF92FF920F9369
:1016F0001F93CF93DF938C01E4E3F2E086E191E066
:10170000DF019C011D9221503040E1F78091FA01E8
:10171000C8E2D1E0833011F4CEECD1E0CE010E94DA
:10172000E000BE01882309F4ACC087E092E00E948B
:10173000630B8881807F803E91F088819981AA81A6
:10174000BB818F3F9F4FAF4FBF4F49F044E050E008
:10175000BE0183E092E00E949915892B31F468E282
:1017600071E084E392E00E94C70A88E0809340021F
:101770001092410249E050E06EEC70E082E492E0A9
:101780000E9450141092440281E180934B02109207
:10179000580283E4809359021092560284E48093A5
:1017A000570210925A0210925C0210925D0268E297
:1017B00071E084E392E00E94C70A81E080935E02B8
:1017C00080935F0286E0809360028091D3019091C4
:1017D000D401A091D501B091D6018093620290937B
:1017E0006302A0936402B0936502C091FA01C33012
:1017F00031F46CE274E08AE692E00E94F10A6DEF47
:1018000071E08AE792E00E94C70A8AE493E090932D
:10181000CD018093CC01E8E6F0E084910E943B0882
:10182000E9E6F0E084910E943B08EAE6F0E084916A
:101830000E943B08EBE6F0E084910E943B0885E3C0
:101840000E943B0881E00E943B0883E0C11101C077
:1018500081E00E943B088DE30E943B0887E00E94E4
:101860003B0881E00E943B088DEFE82E81E0F82ED6
:10187000C7E0C15049F0D7018D917D010E943B081E
:10188000F8CF8DE092E053CF80910001882371F072
:1018900060E071E0FB0101900020E9F7BF016150B9
:1018A000714040E051E08CE00E94480801151105AC
:1018B00059F0A80164E082E30E9448084EEC51E030
:1018C00064E086E30E94480887E30E943B0883E0C7
:1018D0000E943B0881E00E943B0883E00E943B0895
:1018E00086E00E943B088FEF0E943B08C091CC012C
:1018F000D091CD01CE55D240CE014C96909344026A
:10190000809345020E943E06CE01089690935A02AB
:1019100080935B02AE01405F5F4F21E06AE188E2A5
:101920000E94EB05CE018A96DF91CF911F910F9116
:10193000FF90EF900C946A07CF92DF92EF92FF92A4
:101940000F931F93CF93DF9300D000D0CDB7DEB7B6
:101950008C018091FA018230C9F098F4882309F44F
:101960009CC0813009F4B8C00F900F900F900F9079
:10197000DF91CF911F910F91FF90EF90DF90CF906B
:101980000895833009F454C0843071F765E0C801CC
:101990000E94FB07882309F4C7C08091D2018111FE
:1019A00008C088E30E94D106682F6E7F88E30E94FA
:1019B000B7066EE672E08CE294E00E94F10AEEE473
:1019C000F3E00C5C1D4F7F0122E0E20EF11CD180A0
:1019D0008081863009F4FAC008F0BDC0813009F476
:1019E000EBC0833009F4EEC0F701ED0DF11DE017F7
:1019F000F10748F30E943D036093DB017093DC0123
:101A00008093DD019093DE0180912002882361F0B4
:101A1000109225021092240281E08093260260E257
:101A200072E0CB010E94F10A83E08093FA019CCF1F
:101A3000C090DF01D090E001E090E101F090E20180
:101A40002FEFC216D206E206F20609F48DCF0E94ED
:101A50003D030091DB011091DC012091DD0130910B
:101A6000DE01601B710B820B930B6C157D058E05DF
:101A70009F0508F479CF8CE294E00E94750B84E016
:101A80008093FA010E943D036093D7017093D801BF
:101A90008093D9019093DA0167CF0E943D03609350
:101AA000D3017093D4018093D5019093D601ECE2D9
:101AB000F4E084E0DF011D928A95E9F790E080E090
:101AC0000E94750B88E30E94D106682F616088E34D
:101AD0000E94B70681E0D4CF62E0C8010E94FB07F4
:101AE000882311F16EE672E0CE0101960E94F10AA0
:101AF000EEE4F3E00C5C1D4FBF016E5F7F4F818110
:101B00009081963351F48EEC91E00E94F10ACE015F
:101B100001960E94750B82E0B3CFFB01E80FF11D27
:101B2000E017F10748F3F3CF0E943D030091D7017E
:101B30001091D8012091D9013091DA01601B710B0D
:101B4000820B930B613177428105910508F40CCF2C
:101B50001092FA0109CF8A3331F08F3F09F44ACF4E
:101B6000833309F041CF1092DF011092E00110920F
:101B7000E1011092E201F701C701049620E030E094
:101B8000A9016191542F432F322F2227260F311D97
:101B9000411D511D8E179F07A1F72F3F8FEF38076B
:101BA00048075807B9F42093DF013093E0014093D0
:101BB000E1015093E20118CFB70188E294E00E945E
:101BC000F10A12CFB70180E292E0F9CFB7018BE1C1
:101BD00092E0F5CFA8EEB3E00E9474156093DF01A8
:101BE0007093E0018093E1019093E201FDCE1F929A
:101BF0000F920FB60F9211242F933F934F935F9341
:101C00006F937F938F939F93AF93BF93EF93FF93C4
:101C100080E394E00E949B01FF91EF91BF91AF910F
:101C20009F918F917F916F915F914F913F912F91F4
:101C30000F900FBE0F901F9018951F920F920FB626
:101C40000F9211242F938F939F93EF93FF93E09123
:101C50004004F09141048081E0914604F0914704F2
:101C600082FD1BC09081809149048F5F8F7320910A
:101C70004A04821741F0E0914904F0E0E05DFB4F37
:101C8000958F80934904FF91EF919F918F912F91B0
:101C90000F900FBE0F901F9018958081F4CF1F9268
:101CA0000F920FB60F9211242F933F938F939F9310
:101CB000AF93BF938091E8019091E901A091EA016F
:101CC000B091EB013091E70123E0230F2D3758F558
:101CD0000196A11DB11D2093E7018093E801909327
:101CE000E901A093EA01B093EB018091EC0190919E
:101CF000ED01A091EE01B091EF010196A11DB11D82
:101D00008093EC019093ED01A093EE01B093EF016D
:101D1000BF91AF919F918F913F912F910F900FBEE7
:101D20000F901F90189526E8230F0296A11DB11D54
:101D3000D2CF1F920F920FB60F9211242F933F9381
:101D40004F935F936F937F938F939F93AF93BF93C3
:101D5000EF93FF93E091FB01F091FC010995FF9156
:101D6000EF91BF91AF919F918F917F916F915F9113
:101D70004F913F912F910F900FBE0F901F9018958C
:101D8000CF93DF93E0E3F4E01382128288EE93E0D6
:101D9000A0E0B0E084839583A683B78382E391E0DB
:101DA0009183808385EC90E09587848784EC90E034
:101DB0009787868780EC90E0918B808B81EC90E018
:101DC000938B828B82EC90E0958B848B86EC90E0F9
:101DD000978B868B118E128E138E148EC5EDD4E0E8
:101DE00084E491E09983888380E291EAA7E0B0E0FF
:101DF0008A839B83AC83BD838FEF9FEF9F838E830A
:101E0000188689878A8768E070E0CE010E94920573
:101E100080E691E099838883EDECF4E013821282EE
:101E20008CE791E091838083DF91CF910895CF93E8
:101E3000DF9300D0CDB7DEB7789484B5826084BDDF
:101E400084B5816084BD85B5826085BD85B58160BE
:101E500085BD80916E00816080936E00109281003C
:101E600080918100826080938100809181008160F7
:101E700080938100809180008160809380008091B8
:101E8000B10084608093B1008091B0008160809344
:101E9000B00080917A00846080937A0080917A000B
:101EA000826080937A0080917A00816080937A00CA
:101EB00080917A00806880937A001092C100E0914E
:101EC0004004F091410482E08083E0913C04F09171
:101ED0003D041082E0913E04F0913F048FEC80833A
:101EE00010924804E0914404F091450486E0808318
:101EF000E0914204F0914304808180618083E0910D
:101F00004204F0914304808188608083E091420420
:101F1000F0914304808180688083E0914204F091D5
:101F2000430480818F7D808360E084E00E94AA0268
:101F300080E1809381001092800088EA91E690937E
:101F400087008093860084E18093810083E698E097
:101F50009093FC018093FB0181E080936F001092CD
:101F6000270287E390E0C12CD12C7601C39400971F
:101F7000C1F0FC0123E0F595E7952A95E1F7ED50D6
:101F8000FE4F282F2770B701A60104C0440F551F2C
:101F9000661F771F2A95D2F72081242B2083019773
:101FA000E6CF60E271E08DEF91E00E94C70A84EF16
:101FB00091E09093F2018093F1010CB406FC25C0EE
:101FC00061E08AE00E94AA0261E08AE00E947C024D
:101FD00061E08BE00E94AA0261E08DE00E94AA020B
:101FE00060E08CE00E94AA0261E08BE00E947C022B
:101FF00060E08BE00E947C0260E08DE00E947C0249
:1020000080E58CBD8DB581608DBD8AE08093F00147
:1020100061E00E94AA020E9452064FEF60E08FEF3B
:102020000E94860662E070E080E090E00E940B0370
:102030000E9459068DE10E944D0680E00E944D06E7
:102040001EB50E945206112399F370E060E088E00B
:102050000E94C40670E060E08CE00E94C4066FEF4E
:102060007BE08AE00E94C40660E07CE084E00E949D
:10207000C4066FEF71E186E00E94C40666E774E073
:1020800084E10E94E80761EB88E30E94B7066FE3F2
:1020900070E388E20E94C40669EF77EF80E30E9454
:1020A000C40661E080EC0E94B70642E362EC80E87F
:1020B0000E94860662E17CE086EC0E94C40662E132
:1020C00084EC0E94B7066CED75E08AEC0E94C406B1
:1020D0006091FD0184EE0E94B7066091FE0185EEDD
:1020E0000E94B7066091FF0182EE0E94B7066091E0
:1020F000000283EE0E94B7066091010280EE0E940A
:10210000B7066091020281EE0E94B70660E071E0BE
:1021100080E10E94E8078FE10E949B0640EC6BE1A2
:1021200080E80E94860644E06FE180E80E9486060F
:1021300082E70E94D106863008F08F5F81110CC0C3
:1021400067E871E080E394E00E94870864E871E04A
:1021500080E394E00E94870881E0809327028091C9
:102160000202282F30E004E0359527950A95E1F723
:10217000E0E0F1E001900020E9F7E350F14090E366
:102180002A300CF097E3E050FF4F920F9083E0E08D
:10219000F1E001900020E9F7E250F1408F7090E308
:1021A0008A300CF097E3890FE050FF4F8083109244
:1021B000FA010E943D038B01F090FA0123E0F21630
:1021C00041F00E943D03601B710B60367A4E08F4AB
:1021D0006CC1ECE2F4E028E234E063E072E040E35A
:1021E00054E09191D9018D919D018095892BDB015E
:1021F0008D93BD014E175F07A1F710922502109233
:102200002402B3E0FB1661F069EA71E080E394E038
:102210000E94870864E871E080E394E00E948708E8
:102220006CE274E085EB91E00E94600A60E272E08B
:102230008BEB91E00E94600A6BE172E086EC91E02A
:102240000E94600A66246394712C76E0472EEAE6C9
:10225000EE2EE2E0FE2EF7EDCF2EF0E0DF2EACE228
:102260002A2EB2E05B2E10E0812E10E0912E7092AB
:1022700033026092320284E00E9453028130910561
:10228000A1F42091300230913102232B71F420917E
:102290002E0230912F022F5F3F4F30932F02209359
:1022A0002E02909331028093300284E00E94530208
:1022B000892B51F48091300290913102019721F4E1
:1022C000109231021092300280912C0290912D02D6
:1022D0000A97C9F420912E0230912F02429EC0012C
:1022E000439E900D112490932B0280932A0210920A
:1022F00033021092320210922F0210922E0210928C
:102300002D0210922C020E94FF068C018091270260
:10231000882319F0C8010E949C0C0115110509F0D1
:10232000D0C080912602857099F08091240290910E
:102330002502892B69F40E94E90682FF09C080E228
:1023400092E00E94F90A809126028860809326021A
:10235000809124029091250201969093250280930A
:10236000240280911F02813009F069C08091260209
:1023700081FF65C050921F02109127011F5F1093CB
:1023800027011F7185E192E00E94E00065E172E0A3
:10239000882309F493C087E092E00E94630B08E071
:1023A000009340021092410249E050E06EEC70E070
:1023B00082E492E00E9450142092450240924B0227
:1023C0000E943E0610925802109259028BE08093B0
:1023D000560210935702EAE5F2E0DF011D920A95DA
:1023E000E9F78091260180935C028D5F809326013E
:1023F00080E6809362025092630283E080936402DD
:1024000010926502109266021092670210926802A2
:102410001092690250926A0284E080936B0250929B
:102420006C0286E280936D0222E040E250E06AE1B5
:1024300082E30E94EB058AE390E00E946A078BE149
:1024400092E00E94E000882379F080911A028111C5
:102450000BC080911902811107C08BE192E00E94AC
:10246000F90A81E08093190285E192E00E94E00080
:10247000882379F08091140281110BC0809113029E
:10248000811107C085E192E00E94F90A81E0809302
:1024900013028114910409F4EACE0E948701882373
:1024A00009F4E5CE0E940000E2CE0E94E90682FF18
:1024B00083CE0E94FF060E949C0C7ECE8DE092E0AF
:1024C0006CCF0932110528F380914002883009F75A
:1024D00080914102863009F09BC144E050E06CE2FB
:1024E00074E08AE592E00E949915892B91F680911B
:1024F0004902813021F58AE392E00E94E60A1092B7
:102500004802509249026AE472E084E592E00E9437
:10251000C70A6DEF71E08AE492E00E94C70A60E5A5
:1025200072E08AE592E00E94F10A6CE274E080E5D4
:1025300092E00E94F10A8AE290E00E946A0780918C
:10254000260283FF0DC010914902123049F46DE05C
:1025500072E080E292E00E94CF0A8111109326027D
:1025600080911A02811111C080911902882369F0AB
:1025700067E072E08BE192E00E94CF0A882329F0A5
:1025800081E080931A021092190280911402811145
:1025900080CF80911302882309F47BCF67E072E03B
:1025A00085E192E00E94CF0A882309F472CF81E08E
:1025B00080931402109213026CCF0633110508F4B5
:1025C00068CF863009F065CF809158028B3009F0D2
:1025D0004EC044E050E065E172E08EE492E00E947B
:1025E0009915892B09F055CF1091630212FF04C091
:1025F00085E080931F024DCF0E94A50520911F0208
:10260000223009F5212F20711271123181F460E01E
:1026100090E080E00E943F0B88E18093630283E0BA
:1026200080931F0290E080E00E94CA0732CF31E021
:1026300030931F020196222311F090E080E064E0C5
:102640000E943F0B26CF253009F423CF10FF0AC08C
:10265000233009F41ECF69E001960E943F0B40929F
:102660001F0217CF60E0009709F413CFE9CF811163
:1026700010CF80915902803509F00BCF3090630262
:1026800031FE37C010924402209245020E942D0B69
:10269000B2E1B093630260E081E090E00E94C00587
:1026A00010925A0210925B028091260180935C0284
:1026B00010925D028D5F8093260150926A0284E041
:1026C00080936B0285E080936C0210926D0290E61D
:1026D000909362028093640288E78093650222E00F
:1026E00040E250E06AE182E30E94EB058AE390E079
:1026F000D4C034FECECE0E94A505909329028093CB
:102700002802892B99F18091620290E044E095952E
:1027100087954A95E1F7880F991F880F991F829630
:102720000817190708F4B5CE1A82198230E020E0A4
:10273000AE014F5F5F4FBE016E5F7F4F85ED94E04E
:102740000E942C05892BC1F060ED77E080E090E0DD
:102750000E940B0360E080912802909129020E9460
:102760003F0B99E190936302C5015ECF30FE91CE9D
:1027700060E090E080E064CF2A81398183E4809337
:102780007C0080917A00806480937A0080917A0046
:1027900086FDFCCF90917800809179001092D00452
:1027A0001092CF04F092D204E092D104F092D404BB
:1027B000E092D3041F923F9389279827892797FD9A
:1027C000079633E0959587953A95E1F79F938F9318
:1027D0001F922F9380912B028F9380912A028F93C7
:1027E000DF92CF92ADECB4E0BF93AF930E9491081B
:1027F000A090D304B090D4048091D1049091D204DD
:10280000A81AB90A0FB6F894DEBF0FBECDBFA2CF8B
:102810000932110509F43DCE81113BCE809142026F
:10282000853409F036CE44E050E06CE274E082E595
:1028300092E00E949915892BA9F044E050E063E0F2
:1028400072E082E592E00E949915892B59F044E0EC
:1028500050E068E271E082E592E00E949915892BD0
:1028600009F017CE80914B02813009F0A6CE8091FD
:102870005602883009F00DCE0E942D0B10925602A0
:1028800080915802883F28F0909159029F5F909361
:102890005902885F80935802C8010E946A07F9CDE7
:1028A000FB01DC0102C005900D9241505040D8F769
:1028B0000895BB272A3051F4992342F4BDE2909544
:1028C0008095709561957F4F8F4F9F4F0C94691441
:1028D000BB27FA01A62F6217710581059105330BFD
:1028E00030FB66F0AA27660F771F881F991FAA1F63
:1028F000A21710F0A21B63953850A9F7A05DAA3368
:1029000008F0A95DA19336F7B111B1931082CA0105
:102910000C948A14DC01FC01672F71917723E1F795
:10292000329704C07C916D9370836291AE17BF079C
:10293000C8F30895F999FECF92BD81BDF89A992701
:1029400080B508950E94A9146894B1110C943815AB
:1029500008950E941D1588F09F5798F0B92F992768
:10296000B751B0F0E1F0660F771F881F991F1AF07A
:10297000BA95C9F714C0B13091F00E943715B1E093
:1029800008950C943715672F782F8827B85F39F092
:10299000B93FCCF3869577956795B395D9F73EF413
:1029A00090958095709561957F4F8F4F9F4F0895BB
:1029B000E89409C097FB3EF49095809570956195D9
:1029C0007F4F8F4F9F4F9923A9F0F92F96E9BB278F
:1029D0009395F695879577956795B795F111F8CF0B
:1029E000FAF4BB0F11F460FF1BC06F5F7F4F8F4F76
:1029F0009F4F16C0882311F096E911C0772321F06C
:102A00009EE8872F762F05C0662371F096E8862F03
:102A100070E060E02AF09A95660F771F881FDAF75A
:102A2000880F9695879597F9089557FD9058440F0C
:102A3000551F59F05F3F71F04795880F97FB991F1D
:102A400061F09F3F79F087950895121613061406DA
:102A5000551FF2CF4695F1DF08C016161706180667
:102A6000991FF1CF86957105610508940895E89442
:102A7000BB2766277727CB0197F90895AA1BBB1BB5
:102A800051E107C0AA1FBB1FA617B70710F0A61B6E
:102A9000B70B881F991F5A95A9F780959095BC018F
:102AA000CD010895A1E21A2EAA1BBB1BFD010DC08A
:102AB000AA1FBB1FEE1FFF1FA217B307E407F507EE
:102AC00020F0A21BB30BE40BF50B661F771F881FCA
:102AD000991F1A9469F760957095809590959B0160
:102AE000AC01BD01CF0108950E948515A59F900DF1
:102AF000B49F900DA49F800D911D11240895EE0F99
:102B0000FF1F0590F491E02D0994A29FB001B39F9F
:102B1000C001A39F700D811D1124911DB29F700DE6
:102B2000811D1124911D089581E090E0F8940C948A
:102B3000AD15FB01DC0104C08D910190801921F4D9
:102B400041505040C8F7881B990B0895FB01DC01E8
:0E2B500001900D920020E1F70895F894FFCF58
:102B5E0041726475696E6F2D454E4332386A363058
:102B6E002D303000000000000000000000000000CA
:102B7E007469692D30310A01FFFFFFFFFFFF00006E
:102B8E000000BD011D014A010A027B0159016D01C0
:102B9E0000000000920587052C050905C50AC50A27
:102BAE00050501058B047304C50A0D040000000021
:102BBE00920587052C0509056C03490305050105DA
:102BCE008B04730481090D040000000073081D01BD
:102BDE00840883080D0A0054727920746F20616393
:102BEE00636573732045746865726E657420636FD8
:102BFE006E74726F6C6C657200444843502066614F
:102C0E00696C65640049503A20200047617465770D
:0C2C1E0061793A202000444E533A200017
:00000001FF
