:020000040000FA
:100000000C94B5000C94DD000C94DD000C94DD0024
:100010000C94DD000C94DD000C94DD000C94DD00EC
:100020000C94DD000C94DD000C94DD000C94DD00DC
:100030000C94DD000C94C00E0C94DD000C94DD00DB
:100040000C94760E0C94DD000C94440E0C941E0E51
:100050000C94DD000C94DD000C94DD000C94DD00AC
:100060000C94DD000C94DD006382536300010800F2
:100070000604000100000000240027002A00000000
:100080000000250028002B000000000023002600AF
:10009000290004040404040404040202020202020B
:1000A000030303030303010204081020408001023C
:1000B00004081020010204081020000000080002BB
:1000C00001000003040700000000000000004500DC
:1000D00000820000400020485454502F312E302020
:1000E000323030204F4B0D0A436F6E74656E742DA5
:1000F000547970653A206170706C69636174696FDE
:100100006E2F6A736F6E0D0A507261676D613A20CF
:100110006E6F2D63616368650D0A0D0A7B22746939
:10012000746C65223A226D792074656D702075704B
:1001300064617465222C2268656172745F726174F7
:1001400065223A24442C2274656D70223A24442C92
:1001500022626D70223A24442C2268756D696469AC
:100160007479223A24447D00E70E11241FBECFEF9C
:10017000D8E0DEBFCDBF11E0A0E0B1E0ECEEFCE2E4
:1001800002C005900D92A03DB107D9F724E0A0ED83
:10019000B1E001C01D92A63EB207E1F710E0C5EB49
:1001A000D0E004C02197FE010E944616C43BD1074F
:1001B000C9F70E943E0F0C9474160C940000CF9364
:1001C000DF93209132042223C1F0FC0120812223FD
:1001D000A1F0C2E3D4E0AEE2B4E09C012C5F3F4F5B
:1001E000899141919D918427892339F4E217F3077E
:1001F000B9F781E0DF91CF91089580E0FBCFCF93F5
:10020000DF93EC01FB018A30910548F06AE070E071
:100210000E940516CB01BF010E94FF00FC01CE0128
:100220006AE070E00E940516805D80831182CF0134
:100230000196DF91CF910895AF92BF92CF92DF9256
:10024000EF92FF920F931F93CF93DF936C017B018B
:100250008B01040F151FEB015E01AE18BF08C0171C
:10026000D10759F06991D601ED91FC910190F0818F
:10027000E02DC6010995892B79F7C501DF91CF9152
:100280001F910F91FF90EF90DF90CF90BF90AF90B4
:100290000895FC01538D448D252F30E0842F90E08C
:1002A000821B930B541710F0CF9608950197089571
:1002B000FC01918D828D981761F0A28DAE0FBF2F3A
:1002C000B11D5D968C91928D9F5F9F73928F90E090
:1002D00008958FEF9FEF0895FC01918D828D9817FF
:1002E00031F0828DE80FF11D858D90E008958FEF3C
:1002F0009FEF0895FC01918D228D892F90E0805C05
:100300009F4F821B91098F739927089586E394E08C
:100310000E947A0121E0892B09F420E0822F0895C0
:1003200080E090E0892B29F00E94860181110C94D5
:1003300000000895FC01A48DA80FB92FB11DA35A88
:10034000BF4F2C91848D90E001968F739927848FF5
:10035000A689B7892C93A089B1898C918370806418
:100360008C93938D848D981306C00288F389E02DB9
:1003700080818F7D80830895EF92FF920F931F936A
:10038000CF93DF93EC0181E0888F9B8D8C8D981348
:100390001AC0E889F989808185FF15C09FB7F89454
:1003A000EE89FF896083E889F989808183708064A0
:1003B00080839FBF81E090E0DF91CF911F910F91EB
:1003C000FF90EF900895F62E0B8D10E00F5F1F4FFA
:1003D0000F731127E02E8C8D8E110CC00FB607FC09
:1003E000FACFE889F989808185FFF5CFCE010E9497
:1003F0009A01F1CFEB8DEC0FFD2FF11DE35AFF4F6A
:10040000F0829FB7F8940B8FEA89FB898081806224
:10041000CFCFCF93DF93EC01888D8823B9F0AA89E1
:10042000BB89E889F9898C9185FD03C0808186FDAF
:100430000DC00FB607FCF7CF8C9185FFF2CF8081FE
:1004400085FFEDCFCE010E949A01E9CFDF91CF91D8
:100450000895833081F028F4813099F08230A9F03A
:1004600008958730A9F08830C9F08430B1F48091C4
:1004700080008F7D03C0809180008F778093800003
:10048000089584B58F7784BD089584B58F7DFBCFA3
:100490008091B0008F778093B00008958091B00074
:1004A0008F7DF9CFCF93DF93282F30E0F901E65409
:1004B000FF4F8491F901EA55FF4FD491F901EE56AF
:1004C000FF4FC491CC23A1F081110E942902EC2F8F
:1004D000F0E0EE0FFF1FE857FF4FA591B491EC91AC
:1004E000ED2381E090E009F480E0DF91CF91089561
:1004F00080E090E0FACF1F93CF93DF93282F30E076
:10050000F901E654FF4F8491F901EA55FF4FD49168
:10051000F901EE56FF4FC491CC23A9F0162F81119B
:100520000E942902EC2FF0E0EE0FFF1FE258FF4F70
:10053000A591B4918FB7F894EC91111108C0D095A2
:10054000DE23DC938FBFDF91CF911F910895DE2BC7
:10055000F8CFCF93DF9390E0FC01EA55FF4F249151
:100560008E569F4FFC0184918823C9F090E0880F3C
:10057000991FFC01EC58FF4FA591B491FC01E25882
:10058000FF4FC591D49161110DC09FB7F8948C9124
:10059000209582238C938881282328839FBFDF9115
:1005A000CF910895623051F49FB7F8943C91822F17
:1005B000809583238C93E8812E2BEFCF8FB7F8940F
:1005C000EC912E2B2C938FBFEACF8E3008F08E50FB
:1005D0008770806480937C0080917A00806480932F
:1005E0007A0080917A0086FDFCCF8091780090910E
:1005F000790008953FB7F8948091F0019091F1014E
:10060000A091F201B091F30126B5A89B05C02F3F40
:1006100019F00196A11DB11D3FBFBA2FA92F982F28
:100620008827BC01CD01620F711D811D911D42E023
:10063000660F771F881F991F4A95D1F708958F92EB
:100640009F92AF92BF92CF92DF92EF92FF924B01B7
:100650005C010E94FA026B017C010E94FA026C1993
:100660007D098E099F09683E734081059105A8F3B5
:1006700021E0821A9108A108B10888EEC80E83E033
:10068000D81EE11CF11C81149104A104B10429F7C6
:10069000FF90EF90DF90CF90BF90AF909F908F90A2
:1006A00008952FB7F8946091EC017091ED0180915D
:1006B000EE019091EF012FBF0895CF92DF92EF925C
:1006C000FF920F931F93CF93DF93EC017A0169019F
:1006D000E881F9810190F081E02D0995E881F981A7
:1006E0000084F185E02D9801A601B701CE01DF91CC
:1006F000CF911F910F91FF90EF90DF90CF900994D1
:100700006F927F928F929F92AF92BF92CF92DF9221
:10071000EF92FF920F931F93CF93DF93CDB7DEB786
:1007200029970FB6F894DEBF0FBECDBFDC01169639
:10073000ED91FC91319609F480C059013A016B01A9
:100740008C01FE0131964F0185E0DF011D928A95F3
:10075000E9F7D801ED91FC910488F589E02DB40109
:10076000C80109957C01892B09F051C01F821E82A6
:1007700019861886D801ED91FC910688F789E02D3D
:100780009E01285F3F4FAE014A5F5F4FB401C80131
:1007900009957C01892BD9F5A114B10439F085E0C4
:1007A000F401D50101900D928A95E1F70E811F8128
:1007B000C114D10479F0612F772767FD7A95072E50
:1007C000000C880B990B0E947915F60160837183E8
:1007D000828393836114710489F08985682F782F4F
:1007E000770F770B072E000C880B990B0E94791559
:1007F000D3016D937D938D939C931397012B39F4C3
:1008000088859985892B19F496E1E92EF12CC70189
:1008100029960FB6F894DEBF0FBECDBFDF91CF9102
:100820001F910F91FF90EF90DF90CF90BF90AF900E
:100830009F908F907F906F90089587E1E82EF12C24
:10084000E6CF8F929F92AF92BF92CF92DF92EF92BC
:10085000FF920F931F93CF93DF93EC018B016A01FB
:100860007901E881F9810288F389E02DDB016C913F
:100870000995B82EE881F9810288F389E02DD80125
:1008800011966C91CE010995982EE881F981028824
:10089000F389E02DD80112966C91CE010995A82E0E
:1008A000E881F9810288F389E02DD80113966C91D3
:1008B000CE010995882EE881F9810288F389E02D1F
:1008C000D80114966C91CE0109959B2D990D9A0D26
:1008D000980D891319C09A2D882DF6019183808374
:1008E0009B2D892DD7018D939C9390E080E0DF9123
:1008F000CF911F910F91FF90EF90DF90CF90BF901D
:10090000AF909F908F90089585E190E0F0CF629531
:1009100070E09B0135952795359527952373660FD4
:10092000771F660F771F6C7C262B30E0C9019595E9
:1009300087958575220F331F2A7A822B08953F925F
:100940004F925F926F927F928F929F92AF92BF92DF
:10095000CF92DF92EF92FF920F931F93CF93DF938B
:10096000EC01162F7A0169010E94FA024B015C0129
:10097000312C111139843601660C771C660C771CFA
:1009800085E0681A71082701440C551C440C551C5D
:1009900085E0481A510810E000E060E070E0CB010B
:1009A0002A813B814C815D8126173707480759070B
:1009B0000CF10115110599F582E0E816F1041CF01F
:1009C000C2010197F1F70E94FA02681979098A09B0
:1009D0009B09EA85F0E0EE0FFF1FE857FF4FA59156
:1009E000B4912C910F5F1F4F39852323231105C02C
:1009F00097FFD6CF6FEF7FEFCB01DF91CF911F91A4
:100A00000F91FF90EF90DF90CF90BF90AF909F90AD
:100A10008F907F906F905F904F903F90089582E00D
:100A2000C816D10484F2C301CCCFFC01828590E0CA
:100A30000895FC01818590E00895CF92DF92EF92B6
:100A4000FF920F931F93CF93DF93EC017A0169011B
:100A5000E881F9810190F081E02D0995E881F98123
:100A60000480F581E02D9801A601B701CE01DF9148
:100A7000CF911F910F91FF90EF90DF90CF9009944D
:100A8000CF92DF92EF92FF920F931F93CF93DF935A
:100A9000CDB7DEB728970FB6F894DEBF0FBECDBF37
:100AA000DC011696ED91FC91319609F440C08A0163
:100AB0007B0119821A821B821C821D821E821F8268
:100AC0001886DC01ED91FC910084F185E02DAE01EA
:100AD0004B5F5F4FBE016F5F7F4F09956C01892BA4
:100AE000B1F4E114F10441F069817A818B819C8138
:100AF0000E944115F70160830115110541F06D81D8
:100B00007E818F8198850E944115D8016C93C60122
:100B100028960FB6F894DEBF0FBECDBFDF91CF9100
:100B20001F910F91FF90EF90DF90CF90089587E194
:100B3000C82ED12CECCF262F2D7F29F4FC01608705
:100B400090E080E0089588E190E00895DC01179638
:100B50007C936E931697FB01EA55FF4FE49119962B
:100B6000EC9319976E567F4FFB0164911A966C9324
:100B7000089580914A0290914B02982789279827DF
:100B800044972091680230E044E0359527954A95D6
:100B9000E1F7220F331F220F331F821B930B97FFA6
:100BA00002C090E080E0089520915E0230915C02E6
:100BB00030935E0220935C0220915F0230915D02CF
:100BC00030935F0220935D02EAE3F2E021A5820FF9
:100BD000911D25A585A7662381F021A7892F992737
:100BE000319722E0E633F20789F710926C021092F7
:100BF0006D0280E580936802089511A6EFCF0F93F0
:100C00001F93CF93DF9370E0665C7D4F8A01075F8F
:100C10001F4F213029F0223031F48A01025011098E
:100C200030E020E003C000E010E09801EB01FA01A1
:100C3000E230F10558F0A991B991BA27AB27BA274C
:100C40000A0F1B1F211D311D3297F2CFFA01EE7FD3
:100C50006E0F7F1F4E175F0769F0FB01408150E068
:100C600070E060E0762F652F542F4427040F151F86
:100C7000261F371FA90166277727411551056105F2
:100C8000710519F022273327F1CF00951095E82F31
:100C9000F0E0E65CFD4F10830183DF91CF911F915F
:100CA0000F910895EAE3F2E0108E118E80E4848BB8
:100CB000158A868B20E044E150E06EE088E10C94D8
:100CC000FF058EBD0DB407FEFDCF089561E0809154
:100CD000F4010E947B0278940895F89460E080917A
:100CE000F4010C947B020F931F93CF93DF93EC01DD
:100CF0008B010E946D062097B9F08AE30E9461067D
:100D00001EBCF801CE01019739F00DB407FEFDCFEE
:100D10002EB51EBC2193F7CF2197C00FD11F0DB464
:100D200007FEFDCF8EB58883DF91CF911F910F9184
:100D30000C9466061F93CF93DF93182FC62FD42FE2
:100D40000E946D068C2F8F71812B0E9461068D2F62
:100D50000E946106DF91CF911F910C946606CF939C
:100D6000C82FC0768091E7018C1799F043E06FE1BE
:100D700080EA0E949A06C093E7014C2F50E085E07C
:100D8000559547958A95E1F76FE180E8CF910C94EE
:100D90009A06CF910895CF93DF93C82FD62F0E9444
:100DA000AF064D2F6C2F80E4DF91CF910C949A0603
:100DB000CF93DF93C82FD72F0E94CB066D2F81E0F2
:100DC0008C0FDF91CF910C94CB06CF93C82F0E944C
:100DD000AF060E946D068C2F8F710E94610680E025
:100DE0000E946106C7FF03C080E00E946106CEB585
:100DF0000E9466068C2FCF91089561E184ED0E94D8
:100E0000CB0661E082ED0E94CB068AEE0E94E506E9
:100E100080FDFBCF60E082ED0E94CB0689ED0E9451
:100E2000E50690E008950F931F93CF93DF9300D0D2
:100E300000D000D0CDB7DEB78091EA01882379F0E9
:100E40006091E8017091E9016115710509F053C0E5
:100E50006FEF7BE08CE00E94D8061092EA0189E3F4
:100E60000E94E50610E000E08823C9F16091E801E6
:100E70007091E90180E00E94D806BE016F5F7F4F4C
:100E800086E090E00E94730689819A819093E9013F
:100E90008093E8018D819E818C010078112787FF66
:100EA00012C08B819C8104970091F5011091F6018D
:100EB000015011098017910708F48C016AE372E070
:100EC000C8010E947306F801E65CFD4F108281E0C4
:100ED0008093EA0140E46EE180E80E949A06C8012E
:100EE00026960FB6F894DEBF0FBECDBFDF91CF912F
:100EF0001F910F91089561507109ACCFCF93DF938B
:100F0000EC0140E86FE180E80E949A0640E86FE15A
:100F100080EA0E949A064AE06CE180EA0E949A0602
:100F200060E07CE082E00E94D806BE01745F86E04B
:100F30000E94D80640E060E08AE70E949A060E947C
:100F40006D062097B1F08AE70E94610680913A020F
:100F50008EBDEBE3F2E0C65CDD4FEC17FD0731F030
:100F600081910DB407FEFDCF8EBDF7CF0DB407FE06
:100F7000FDCF0E94660648E06FE180E80E949A0675
:100F8000D0E0C0E08CE10E94E5068A7029F4219649
:100F9000C83E83E0D807B1F78CE10E94E50681FDE9
:100FA00003C0C83ED34039F448E06FE180EADF91E6
:100FB000CF910C949A06DF91CF9108950F931F93D0
:100FC000CF93DF938C018896CAE3D2E0988B898B0C
:100FD0000E9452061AAA1BAAA801445E5F4F22E093
:100FE0006AE182E30E94FF05C801C696DF91CF91B6
:100FF0001F910F910C947E07CF93DF93EB01682F25
:1010000084ED0E94CB06BE0186ED0E94D8068AEED2
:101010000E94E50680FDFBCFDF91CF910895CF922E
:10102000DF92EF92FF920F931F938634910568F140
:1010300020915D02233449F5C0906802D090690286
:10104000E0906A02F0906B020091D7011091D801F4
:101050002091D9013091DA01C016D106E206F306DB
:10106000A1F4E4E5F3E0865C9D4F9F012E5F3F4FC6
:1010700041815081553319F45281651771F0F9019E
:10108000E40FF11DE817F90780F380E01F910F913D
:10109000FF90EF90DF90CF90089581E0F7CFE0913F
:1010A000D001F091D1019F012F5F3F4F3093D101CB
:1010B0002093D00180830895FF920F931F93CF93C5
:1010C000DF93162FF42E052F0E944F08812F0E94C8
:1010D0004F08CF2DD02F115020F089910E944F083A
:1010E000FACFDF91CF911F910F91FF9008958091DA
:1010F000380290913902019749F48091320290911F
:101100003302019690933302809332020895DC01FA
:101110001696ED91FC9117979F012F5F3F4F179601
:101120003C932E931697608381E090E00895089594
:1011300090E080E00895FB0101900020E9F73197ED
:10114000AF01461B570B0C941C01CF93DF93BC01DE
:1011500086E394E00E949B08EC0164E871E086E37A
:1011600094E00E949B088C0F9D1FDF91CF91089502
:10117000CF92DF92EF92FF920F931F93CF93DF9363
:10118000CDB7DEB78E01015F1F4F97EDE92E90E0DE
:10119000F92EC7010196F7012491222309F4CFC04B
:1011A000243271F0E091D904F091DA04AF014F5F7D
:1011B0005F4F5093DA044093D90420837C01E9CF38
:1011C000F2E0EF0EF11CFC018491863409F483C037
:1011D00098F4843409F44AC0853409F494C0E09149
:1011E000D904F091DA049F012F5F3F4F3093DA0466
:1011F0002093D9048083CDCF4091D9045091DA0453
:101200008C3409F450C0833509F45AC0883439F756
:10121000B8016E5F7F4FF8019081292F092E000CD5
:10122000330B84E0359527958A95E1F72F709F70F1
:101230009A300CF0995F905D2A300CF0295FFA012A
:101240003196F093DA04E093D904205DFA0120830B
:10125000E091D904F091DA049F012F5F3F4F309362
:10126000DA042093D90490838B0193CF6801F2E0D4
:10127000CF0ED11C6091D9047091DA04F8018081FD
:1012800091810E94FF008091D9049091DA04FC01C1
:1012900001900020E9F7CF0101979093DA04809341
:1012A000D904860176CF6801F4E0CF0ED11CF80195
:1012B00060817181828193812AE00E948614E3CF4C
:1012C0006801F2E0CF0ED11CF80160817181CA0182
:1012D0000E946D16D8CFF8010190F081E02D0E5FCD
:1012E0001F4F84913196882309F453CFA091D904DC
:1012F000B091DA049D012F5F3F4F3093DA042093C1
:10130000D9048C93EECFF801808191810E5F1F4F3D
:101310006C01FFEFCF1ADF0A0E94C714882309F47B
:1013200038CFE091D904F091DA049F012F5F3F4F4D
:101330003093DA042093D9048083C601E9CFDF918A
:10134000CF911F910F91FF90EF90DF90CF90089574
:101350004F925F926F927F928F929F92AF92BF92C5
:10136000EF92FF920F931F93CF93DF93EC017B01DA
:1013700085E0FB0111928A95E9F761E08E810E9478
:10138000A90260E08E810E947B0264E170E080E04F
:1013900090E00E941F0361E08E810E947B026885BD
:1013A0008E810E94A9028FE590E00197F1F7E88114
:1013B000F9810088F189E02D26E030E04AE050E034
:1013C00060E0CE0109956E31710581059105ACF49F
:1013D000982F872F762F66276061CB01DF91CF9101
:1013E0001F910F91FF90EF90BF90AF909F908F90C3
:1013F0007F906F905F904F900895E881F981008809
:10140000F189E02D26E030E04AE050E061E0CE01D5
:101410000995623371058105910534F4982F872F62
:10142000762F66276161D9CF10E000E0812C912CE6
:1014300054018394E881F9810088F189E02D26E048
:1014400030E04AE050E060E0CE0109956831710576
:101450008105910534F4982F872F762F66276261D6
:10146000BCCFE881F9810088F189E02D26E030E0E9
:101470004AE050E061E0CE0109956B3071058105CD
:10148000910534F4982F872F762F66276361A5CFB7
:10149000F80133E0F595E7953A95E1F7EE0DFF1D7C
:1014A0009801277033272401350104C0440C551CD2
:1014B000661C771C2A95D2F7208169327105810557
:1014C0009105FCF0422A40820F5F1F4F0832110540
:1014D00009F0B0CFE881F9810088F189E02D26E09C
:1014E00030E04AE050E060E0CE01099568317105D6
:1014F000810591054CF4982F872F762F662764611C
:101500006CCF40944222DFCF70E060E066CF8F92D4
:101510009F92AF92BF92CF92DF92EF92FF921F9372
:10152000CF93DF93CDB7DEB7A1970FB6F894DEBFA8
:101530000FBECDBFD62E172FBC0186E394E00E94CC
:101540009B08ED2CF12E10E08AE0882E912CA12C26
:10155000B12CF70121917F0130E050E040E019A269
:101560006E01F1E2CF0ED11CCA01B901A5019401AF
:101570000E941916605DF60162936F012115310515
:101580004105510589F7309729F0BF0186E394E0C2
:101590000E949B08133029F06EE286E394E00E94DB
:1015A000BC011F5F1430A9F664E871E086E394E0A3
:1015B0000E949B08A1960FB6F894DEBF0FBECDBF68
:1015C000DF91CF911F91FF90EF90DF90CF90BF9070
:1015D000AF909F908F9008950E945B16DC0196E07B
:1015E000FB0101900D929A95E1F70895CF93DF9357
:1015F000EB0144E050E0BC0186E592E00E946016F9
:10160000892B49F460E572E0CE010E94EE0A81E088
:10161000DF91CF91089580E0FBCFBC018AE392E097
:101620000E94EE0A61E072E080E492E00C94EE0A1F
:10163000DC0194E0FB0101900D929A95E1F7089589
:101640000F931F93CF938C0188E291E00E940D0BC2
:10165000EAE3F2E088E08487C6E0C58748E050E02E
:101660006CE670E088E492E00E947D14EAE5F2E026
:10167000DF011D92CA95E9F761E072E080E592E032
:101680000E94EE0AB80180E692E00E94180B62E325
:1016900074E086E592E00E94180B8AE290E0CF9118
:1016A0001F910F910C947E0780E492E00E940D0B35
:1016B00064E572E088E592E00E94180B62E374E052
:1016C00084E592E00E94180B0C945206262F2061AC
:1016D00020936902643021F0009711F481E090E0DA
:1016E00061E00E94D40510924A0288E280934B0286
:1016F0000E94540B84E080936A0210926B0222E0F5
:101700004CE150E06AE182E30E94FF0586E390E04D
:101710000C947E07CF93DF93EB010E940D0BBE016B
:1017200088E592E00E94180B62E374E084E592E0A1
:10173000DF91CF910C94180BEF92FF920F931F93B0
:10174000CF93DF938C01EAE3F2E086E191E0DF01E1
:101750009C011D9221503040E1F78091FE01C8E2CA
:10176000D1E0833011F4C2EDD1E0CE010E94DF0060
:10177000BE01882309F4ACC08BE092E00E948A0B82
:101780008881807F803E91F088819981AA81BB8188
:101790008F3F9F4FAF4FBF4F49F044E050E0BE0135
:1017A00087E092E00E946016892B31F468E271E0D4
:1017B0008AE392E00E94EE0A88E08093460210924B
:1017C000470249E050E06EEC70E088E492E00E944D
:1017D0007D1410924A0281E18093510210925E02C0
:1017E00083E480935F0210925C0284E480935D0244
:1017F00010926002109262021092630268E271E03D
:101800008AE392E00E94EE0A81E080936402809372
:10181000650286E0809366028091D7019091D8019D
:10182000A091D901B091DA01809368029093690286
:10183000A0936A02B0936B02C091FE01C33031F4F1
:1018400062E374E080E792E00E94180B61E072E0CE
:1018500080E892E00E94EE0A80E593E09093D10147
:101860008093D001E8E6F0E084910E944F08E9E619
:10187000F0E084910E944F08EAE6F0E084910E9433
:101880004F08EBE6F0E084910E944F0885E30E9448
:101890004F0881E00E944F0883E0C11101C081E040
:1018A0000E944F088DE30E944F0887E00E944F0876
:1018B00081E00E944F0881E0E82E82E0F82EC7E028
:1018C000C15049F0D7018D917D010E944F08F8CF9A
:1018D00081E192E053CF80910001882371F060E0B4
:1018E00071E0FB0101900020E9F7BF0161507140F8
:1018F00040E051E08CE00E945C080115110559F0B0
:10190000A80164E082E30E945C0842ED51E064E0DB
:1019100086E30E945C0887E30E944F0883E00E94F0
:101920004F0881E00E944F0883E00E944F0886E044
:101930000E944F088FEF0E944F08C091D001D091B4
:10194000D101C456D240CE014C9690934A02809366
:101950004B020E945206CE0108969093600280933B
:101960006102AE01405F5F4F21E06AE188E20E94C0
:10197000FF05CE018A96DF91CF911F910F91FF90C5
:10198000EF900C947E07CF92DF92EF92FF920F932D
:101990001F93CF93DF9300D000D0CDB7DEB78C017B
:1019A0008091FE018230C9F098F4882309F49CC02C
:1019B000813009F4B8C00F900F900F900F90DF9115
:1019C000CF911F910F91FF90EF90DF90CF900895EE
:1019D000833009F454C0843071F765E0C8010E9477
:1019E0000F08882309F4C7C08091D601811108C06F
:1019F00088E30E94E506682F6E7F88E30E94CB068D
:101A000064E772E082E394E00E94180BE4E5F3E0FF
:101A1000065C1D4F7F0122E0E20EF11CD180808127
:101A2000863009F4FAC008F0BDC0813009F4EBC07B
:101A3000833009F4EEC0F701ED0DF11DE017F10759
:101A400048F30E9451036093DF017093E00180939B
:101A5000E1019093E20180912402882361F01092C9
:101A600029021092280281E080932A0264E272E047
:101A7000CB010E94180B83E08093FE019CCFC090A5
:101A8000E301D090E401E090E501F090E6012FEF52
:101A9000C216D206E206F20609F48DCF0E94510367
:101AA0000091DF011091E0012091E1013091E2010C
:101AB000601B710B820B930B6C157D058E059F05CA
:101AC00008F479CF82E394E00E949C0B84E0809339
:101AD000FE010E9451036093DB017093DC0180934F
:101AE000DD019093DE0167CF0E9451036093D7011F
:101AF0007093D8018093D9019093DA01E2E3F4E086
:101B000084E0DF011D928A95E9F790E080E00E9471
:101B10009C0B88E30E94E506682F616088E30E94C1
:101B2000CB0681E0D4CF62E0C8010E940F08882371
:101B300011F164E772E0CE0101960E94180BE4E512
:101B4000F3E0065C1D4FBF016E5F7F4F8181908186
:101B5000963351F482ED91E00E94180BCE0101966C
:101B60000E949C0B82E0B3CFFB01E80FF11DE01750
:101B7000F10748F3F3CF0E9451030091DB0110916C
:101B8000DC012091DD013091DE01601B710B820BC5
:101B9000930B613177428105910508F40CCF1092C7
:101BA000FE0109CF8A3331F08F3F09F44ACF8333E6
:101BB00009F041CF1092E3011092E4011092E50187
:101BC0001092E601F701C701049620E030E0A90178
:101BD0006191542F432F322F2227260F311D411D93
:101BE000511D8E179F07A1F72F3F8FEF380748072A
:101BF0005807B9F42093E3013093E4014093E501E1
:101C00005093E60118CFB7018EE294E00E94180BC2
:101C100012CFB70184E292E0F9CFB7018FE192E0F1
:101C2000F5CFA8EEB3E00E943B166093E3017093FA
:101C3000E4018093E5019093E601FDCE1F920F929F
:101C40000FB60F9211242F933F934F935F936F938F
:101C50007F938F939F93AF93BF93EF93FF9386E30D
:101C600094E00E949A01FF91EF91BF91AF919F91F3
:101C70008F917F916F915F914F913F912F910F9035
:101C80000FBE0F901F9018951F920F920FB60F92D4
:101C900011242F938F939F93EF93FF93E09146042A
:101CA000F09147048081E0914C04F0914D0482FD55
:101CB0001BC0908180914F048F5F8F7320915004DF
:101CC000821741F0E0914F04F0E0EA5CFB4F958F02
:101CD00080934F04FF91EF919F918F912F910F90DF
:101CE0000FBE0F901F9018958081F4CF1F920F9216
:101CF0000FB60F9211242F933F938F939F93AF931F
:101D0000BF938091EC019091ED01A091EE01B09113
:101D1000EF013091EB0123E0230F2D3758F50196A9
:101D2000A11DB11D2093EB018093EC019093ED0177
:101D3000A093EE01B093EF018091F0019091F10139
:101D4000A091F201B091F3010196A11DB11D809304
:101D5000F0019093F101A093F201B093F301BF91D0
:101D6000AF919F918F913F912F910F900FBE0F9048
:101D70001F90189526E8230F0296A11DB11DD2CF02
:101D80001F920F920FB60F9211242F933F934F93F0
:101D90005F936F937F938F939F93AF93BF93EF93D3
:101DA000FF93E091FF01F09100020995FF91EF91FF
:101DB000BF91AF919F918F917F916F915F914F9163
:101DC0003F912F910F900FBE0F901F901895CF93BA
:101DD000DF93E6E3F4E01382128288EE93E0A0E062
:101DE000B0E084839583A683B78382E391E09183F7
:101DF000808385EC90E09587848784EC90E09787DA
:101E0000868780EC90E0918B808B81EC90E0938BC7
:101E1000828B82EC90E0958B848B86EC90E0978BA4
:101E2000868B118E128E138E148ECBEDD4E084E44B
:101E300091E09983888380E291EAA7E0B0E08A8309
:101E40009B83AC83BD838FEF9FEF9F838E83188628
:101E500089878A8768E070E0CE010E94A60580E647
:101E600091E099838883E3EDF4E0138212828CE79A
:101E700091E091838083DF91CF910895CF93DF9399
:101E800000D0CDB7DEB7789484B5826084BD84B5C8
:101E9000816084BD85B5826085BD85B5816085BD65
:101EA00080916E00816080936E001092810080911D
:101EB00081008260809381008091810081608093A5
:101EC0008100809180008160809380008091B100CA
:101ED00084608093B1008091B00081608093B000F5
:101EE00080917A00846080937A0080917A00826089
:101EF00080937A0080917A00816080937A0080914B
:101F00007A00806880937A001092C100E0914604C4
:101F1000F091470482E08083E0914204F091430411
:101F20001082E0914404F09145048FEC808310927C
:101F30004E04E0914A04F0914B0486E08083E091E6
:101F40004804F0914904808180618083E0914804D5
:101F5000F0914904808188608083E0914804F09189
:101F60004904808180688083E0914804F0914904AD
:101F700080818F7D808387E891E00E94A50860E0E2
:101F800084E00E94A90262E082E00E94A90280E14E
:101F9000809381001092800088EA91E690938700F8
:101FA0008093860084E18093810087E798E0909396
:101FB00000028093FF0181E080936F0010922B025A
:101FC00087E390E0C12CD12C7601C3940097C1F037
:101FD000FC0113E0F595E7951A95E1F7E950FE4FFE
:101FE000282F2770B701A60104C0440F551F661F94
:101FF000771F2A95D2F72081242B20830197E6CFE3
:1020000060E271E081E092E00E94EE0A84EF91E0EC
:102010009093F6018093F5010CB406FC25C061E0B5
:102020008AE00E94A90261E08AE00E947B0261E0EE
:102030008BE00E94A90261E08DE00E94A90260E0AD
:102040008CE00E94A90261E08BE00E947B0260E0CC
:102050008BE00E947B0260E08DE00E947B0280E5C5
:102060008CBD8DB581608DBD8AE08093F40161E007
:102070000E94A9020E9466064FEF60E08FEF0E9467
:102080009A0662E070E080E090E00E941F030E94E8
:102090006D068DE10E94610680E00E9461061EB51A
:1020A0000E946606112399F370E060E088E00E94C8
:1020B000D80670E060E08CE00E94D8066FEF7BE00D
:1020C0008AE00E94D80660E07CE084E00E94D806A6
:1020D0006FEF71E186E00E94D80666E774E084E164
:1020E0000E94FC0761EB88E30E94CB066FE370E37C
:1020F00088E20E94D80669EF77EF80E30E94D80655
:1021000061E080EC0E94CB0642E362EC80E80E9432
:102110009A0662E17CE086EC0E94D80662E184ECDB
:102120000E94CB066CED75E08AEC0E94D8066091A7
:10213000010284EE0E94CB066091020285EE0E94AD
:10214000CB066091030282EE0E94CB0660910402EE
:1021500083EE0E94CB066091050280EE0E94CB06C2
:102160006091060281EE0E94CB0660E071E080E1A2
:102170000E94FC078FE10E94AF0640EC6BE180E813
:102180000E949A0644E06FE180E80E949A0682E786
:102190000E94E506863008F08F5F811104C08CE84C
:1021A00091E00E94A50881E080932B0280910602B5
:1021B000282F30E0B4E035952795BA95E1F7E0E0B7
:1021C000F1E001900020E9F7E350F14090E32A307C
:1021D0000CF097E3E050FF4F920F9083E0E0F1E0C6
:1021E00001900020E9F7E250F1408F7090E38A30CF
:1021F0000CF097E3890FE050FF4F80831092FE01AF
:102200000E9451038B01F090FE0123E0F21641F091
:102210000E945103601B710B60367A4E08F472C144
:10222000E2E3F4E02EE234E067E072E046E354E0FB
:102230009191D9018D919D018095892BDB018D9321
:10224000BD014E175F07A1F71092290210922802D4
:10225000B3E0FB1621F081EB91E00E94A50862E358
:1022600074E08DEB91E00E94870A64E272E083ECF7
:1022700091E00E94870A6FE172E089EC91E00E9490
:10228000870A88248394912C56E0552E63EDE62E20
:1022900064E0F62E70E7C72E72E0D72EE5E04E2EF2
:1022A000F0E62F2EA0E06A2EA0E07A2E82E00E94B7
:1022B0005202892B21F49092390280923802809147
:1022C000380290913902019709F048C084E00E94D9
:1022D000520281309105A1F42091360230913702EB
:1022E000232B71F420913402309135022F5F3F4F40
:1022F0003093350220933402909337028093360254
:1023000084E00E945202892B51F480913602909110
:102310003702019721F41092370210923602809111
:102320003202909133020A97C9F42091340230911D
:102330003502529EC001539E900D1124909331029C
:1023400080933002109239021092380210923502B6
:102350001092340210923302109232020E9413073C
:102360008C0180912B02882319F0C8010E94C30CB4
:102370000115110509F0D2C080912A02857099F0EB
:102380008091280290912902892B69F40E94FD0610
:1023900082FF09C084E292E00E94200B80912A0211
:1023A000886080932A0280912802909129020196E8
:1023B000909329028093280280912302813009F0B2
:1023C0006BC080912A0281FF67C082E08093230264
:1023D000109127011F5F109327011F7189E192E07F
:1023E0000E94DF0069E172E0882309F494C08BE069
:1023F00092E00E948A0B08E0009346021092470286
:1024000049E050E06EEC70E088E492E00E947D14B8
:102410002CE220934B02509251020E9452061092DD
:102420005E0210925F028BE080935C0210935D026B
:10243000E0E6F2E0DF011D920A95E9F780912601BE
:10244000809362028D5F809326012092680282E071
:102450008093690293E090936A0210926B0210924B
:102460006C0210926D0210926E0210926F028093B5
:10247000700294E0909371028093720286E28093DE
:10248000730222E040E250E06AE182E30E94FF052D
:102490008AE390E00E947E078FE192E00E94DF00D5
:1024A000882379F080911E0281110BC080911D025A
:1024B000811107C08FE192E00E94200B81E08093A0
:1024C0001D0289E192E00E94DF00882379F080916B
:1024D000180281110BC080911702811107C089E198
:1024E00092E00E94200B81E0809317026114710436
:1024F00009F4DCCE0E948601882309F4D7CE0E941D
:102500000000D4CE0E94FD0682FF7DCE0E941307FC
:102510000E94C30C78CE81E192E06BCF09321105A5
:1025200028F380914602883009F78091470286306F
:1025300009F09BC144E050E062E374E080E692E081
:102540000E946016892B91F680914F02813029F507
:1025500080E492E00E940D0B10924E0282E0809384
:102560004F0260E572E08AE592E00E94EE0A61E0C7
:1025700072E080E592E00E94EE0A66E572E080E695
:1025800092E00E94180B62E374E086E592E00E94FC
:10259000180B8AE290E00E947E0780912A0283FF56
:1025A0000DC010914F02123049F461E172E084E2F3
:1025B00092E00E94F60A811110932A0280911E0275
:1025C000811111C080911D02882369F06BE072E0D7
:1025D0008FE192E00E94F60A882329F081E080933F
:1025E0001E0210921D028091180281117FCF8091EE
:1025F0001702882309F47ACF6BE072E089E192E058
:102600000E94F60A882309F471CF81E080931802B2
:10261000109217026BCF0633110508F467CF86308E
:1026200009F064CF80915E028B3009F04DC044E028
:1026300050E069E172E084E592E00E946016892B27
:1026400009F054CF1091690212FF03C04092230297
:102650004DCF0E94B90520912302223009F5212F88
:1026600020711271123181F460E090E080E00E94EC
:10267000660B88E18093690283E08093230290E0F7
:1026800080E00E94DE0732CF31E0309323020196D2
:10269000222311F090E080E064E00E94660B26CFD8
:1026A000253009F423CF10FF0AC0233009F41ECFD0
:1026B00069E001960E94660B5092230217CF60E0FA
:1026C000009709F413CFE9CF811110CF80915F02F9
:1026D000803509F00BCF3090690231FE37C010927F
:1026E0004A02BCE2B0934B020E94540B22E12093B9
:1026F000690260E081E090E00E94D40510926002DF
:10270000109261028091260180936202109263020E
:102710008D5F8093260182E08093700284E0809335
:1027200071024092720210927302209268024092EB
:102730006A0288E780936B0222E040E250E06AE19F
:1027400082E30E94FF058AE390E0D4C034FECECE3F
:102750000E94B90590932F0280932E02892B99F144
:102760008091680290E024E0959587952A95E1F79D
:10277000880F991F880F991F82960817190708F468
:10278000B5CE1A82198230E020E0AE014F5F5F4F74
:10279000BE016E5F7F4F8BED94E00E944005892B58
:1027A000C1F060ED77E080E090E00E941F0360E000
:1027B00080912E0290912F020E94660B99E19093D6
:1027C0006902C5015ECF30FE91CE60E090E080E00E
:1027D00064CFBA80398081E10E94E502BC01990F83
:1027E000880B990B0E94791521E73DE346E051E4FF
:1027F0000E94CF140E944115162F072F60932C02C0
:1028000070932D028EE00E94E5021092D604109281
:10281000D504D092D804C092D704D092DA04C092E2
:10282000D9041F923F920F931F931F92BF928091E2
:1028300031028F93809130028F9387ED90E09F93C8
:102840008F93FF92EF920E94B808A090D904B090A5
:10285000DA048091D7049091D804A81AB90A0FB667
:10286000F894DEBF0FBECDBFA2CF0932110509F427
:102870003DCE81113BCE80914802853409F036CEA1
:1028800044E050E062E374E088E592E00E94601664
:10289000892BA9F044E050E067E072E088E592E01F
:1028A0000E946016892B59F044E050E068E271E024
:1028B00088E592E00E946016892B09F017CE80917E
:1028C0005102813009F0A7CE80915C02883009F076
:1028D0000DCE0E94540B10925C0280915E02883FE4
:1028E00028F090915F029F5F90935F02885F8093D2
:1028F0005E02C8010E947E07F9CDFB01DC0102C027
:1029000005900D9241505040D8F70895BB272A30CA
:1029100051F4992342F4BDE29095809570956195AC
:102920007F4F8F4F9F4F0C949614BB27FA01A62F11
:102930006217710581059105330B30FB66F0AA27FC
:10294000660F771F881F991FAA1FA21710F0A21BDE
:1029500063953850A9F7A05DAA3308F0A95DA1934B
:1029600036F7B111B1931082CA010C94B714DC018F
:10297000FC01672F71917723E1F7329704C07C91B6
:102980006D9370836291AE17BF07C8F30895F999EC
:10299000FECF92BD81BDF89A992780B508950E9417
:1029A000E3140C94CB150E94C41558F00E94BD1579
:1029B00040F029F45F3F29F00C94B41551110C94A8
:1029C000FF150C94BA150E94DC1568F39923B1F336
:1029D000552391F3951B550BBB27AA276217730745
:1029E000840738F09F5F5F4F220F331F441FAA1FD9
:1029F000A9F335D00E2E3AF0E0E832D09150504095
:102A0000E695001CCAF72BD0FE2F29D0660F771F42
:102A1000881FBB1F261737074807AB07B0E809F028
:102A2000BB0B802DBF01FF2793585F4F3AF09E3FAD
:102A3000510578F00C94B4150C94FF155F3FE4F346
:102A4000983ED4F3869577956795B795F7959F5FF0
:102A5000C9F7880F911D9695879597F90895E1E03C
:102A6000660F771F881FBB1F621773078407BA079B
:102A700020F0621B730B840BBA0BEE1F88F7E095F6
:102A800008950E9448156894B1110C94FF1508959B
:102A90000E94E41588F09F5798F0B92F9927B751F5
:102AA000B0F0E1F0660F771F881F991F1AF0BA95F2
:102AB000C9F714C0B13091F00E94FE15B1E008953D
:102AC0000C94FE15672F782F8827B85F39F0B93F2F
:102AD000CCF3869577956795B395D9F73EF49095A5
:102AE0008095709561957F4F8F4F9F4F0895E89423
:102AF00009C097FB3EF490958095709561957F4F46
:102B00008F4F9F4F9923A9F0F92F96E9BB279395F3
:102B1000F695879577956795B795F111F8CFFAF403
:102B2000BB0F11F460FF1BC06F5F7F4F8F4F9F4F34
:102B300016C0882311F096E911C0772321F09EE892
:102B4000872F762F05C0662371F096E8862F70E0F8
:102B500060E02AF09A95660F771F881FDAF7880FD2
:102B60009695879597F9089597F99F6780E870E0A3
:102B700060E008959FEF80EC089500240A941616F3
:102B8000170618060906089500240A94121613065B
:102B9000140605060895092E0394000C11F48823E9
:102BA00052F0BB0F40F4BF2B11F460FF04C06F5F05
:102BB0007F4F8F4F9F4F089557FD9058440F551FDB
:102BC00059F05F3F71F04795880F97FB991F61F0AF
:102BD0009F3F79F087950895121613061406551F26
:102BE000F2CF4695F1DF08C0161617061806991F92
:102BF000F1CF86957105610508940895E894BB2787
:102C000066277727CB0197F90895AA1BBB1B51E1D3
:102C100007C0AA1FBB1FA617B70710F0A61BB70B4C
:102C2000881F991F5A95A9F780959095BC01CD01F1
:102C30000895A1E21A2EAA1BBB1BFD010DC0AA1FFD
:102C4000BB1FEE1FFF1FA217B307E407F50720F015
:102C5000A21BB30BE40BF50B661F771F881F991F90
:102C60001A9469F760957095809590959B01AC01D9
:102C7000BD01CF0108950E944C16A59F900DB49FF1
:102C8000900DA49F800D911D11240895EE0FFF1F3C
:102C90000590F491E02D0994A29FB001B39FC0016B
:102CA000A39F700D811D1124911DB29F700D811D78
:102CB0001124911D089581E090E0F8940C9474160D
:102CC000FB01DC0104C08D910190801921F4415079
:102CD0005040C8F7881B990B0895FB01DC01019057
:102CE0000D920020E1F70895F894FFCF41726475CA
:102CF000696E6F2D454E4332386A36302D303000C4
:102D00000000000000000000000000007469692D50
:102D100030310A01FFFFFFFFFFFF00000000BC0190
:102D20001C01490109027A0158016C0100000000F0
:102D3000A6059B0540051D05EC0AEC0A19051505BD
:102D40009F048704EC0A210400000000A6059B05EF
:102D500040051D0580035D03190515059F048704C3
:102D6000A80921040000000087081C0198089708A2
:102D70000D0A000A484920004661696C65642074A8
:102D80006F206163636573732045746865726E6557
:102D90007420636F6E74726F6C6C6572004448438C
:102DA00050206661696C65640049503A20200047F4
:0C2DB000573A202000444E533A20000007
:107E0000112484B714BE81FFF0D085E080938100F7
:107E100082E08093C00088E18093C10086E0809377
:107E2000C20080E18093C4008EE0C9D0259A86E02C
:107E300020E33CEF91E0309385002093840096BBD3
:107E4000B09BFECF1D9AA8958150A9F7CC24DD24C4
:107E500088248394B5E0AB2EA1E19A2EF3E0BF2EE7
:107E6000A2D0813461F49FD0082FAFD0023811F036
:107E7000013811F484E001C083E08DD089C08234E0
:107E800011F484E103C0853419F485E0A6D080C0E4
:107E9000853579F488D0E82EFF2485D0082F10E0AE
:107EA000102F00270E291F29000F111F8ED06801E7
:107EB0006FC0863521F484E090D080E0DECF843638
:107EC00009F040C070D06FD0082F6DD080E0C81688
:107ED00080E7D80618F4F601B7BEE895C0E0D1E017
:107EE00062D089930C17E1F7F0E0CF16F0E7DF06D8
:107EF00018F0F601B7BEE89568D007B600FCFDCFD4
:107F0000A601A0E0B1E02C9130E011968C91119780
:107F100090E0982F8827822B932B1296FA010C0160
:107F200087BEE89511244E5F5F4FF1E0A038BF0790
:107F300051F7F601A7BEE89507B600FCFDCF97BE46
:107F4000E89526C08437B1F42ED02DD0F82E2BD052
:107F50003CD0F601EF2C8F010F5F1F4F84911BD097
:107F6000EA94F801C1F70894C11CD11CFA94CF0C13
:107F7000D11C0EC0853739F428D08EE10CD085E9AC
:107F80000AD08FE07ACF813511F488E018D01DD067
:107F900080E101D065CF982F8091C00085FFFCCF94
:107FA0009093C60008958091C00087FFFCCF809118
:107FB000C00084FD01C0A8958091C6000895E0E648
:107FC000F0E098E1908380830895EDDF803219F02E
:107FD00088E0F5DFFFCF84E1DECF1F93182FE3DFCA
:107FE0001150E9F7F2DF1F91089580E0E8DFEE27F6
:047FF000FF270994CA
:027FFE00040479
:00000001FF
